:030000000208FAF9
:0C08FA00787FE4F6D8FD75817402094196
:1009860007085341524E415641142B5246494420C2
:1009960041636365737320436F6E74000000000744
:1009A6003F57454C434F4D450F464163636573734F
:1009B600204772616E746564001255416363657306
:1009C600732044656E69656400000000000C0F30FA
:0B09D6003230303130373039424639C2
:0709E200120A717F147E0070
:1009E900E4FDFCC3ED9FEC9E5015E4FBFA0BBB0044
:0F09F900010ABA04F8BBFBF50DBD00010C80E448
:010A080022CB
:070A6A007F01120A717F8079
:100A7100C2B7C2B68F80D2B57F0A7E001209E9C221
:020A8100B5229C
:100A8300D2B7C2B68F80D2B57F0A7E001209E9C2FF
:020A9300B5228A
:100A2E007F381209E27F0C1209E27F011209E27F80
:100A3E00061209E27F80120A717F147E000209E914
:100A0900758920758DFD759850D28EE4FFFE30985A
:100A1900FD741B2FF8A699C2980FBF00010EEF6451
:040A29000C4E70EA15
:010A2D0022A6
:100A4E0075A0017FC87E001209E9E4F5A01209E93C
:0C0A5E0075A0021209E9E4F5A00209E904
:10080000E4F567F568F569F56AF56BF56CF56DF576
:100810006EF56FF570F571F572F573F574C2A3128C
:100820000A2E74082568F8E6FF600D120A83056831
:10083000E56870EE056780EA7FC0120A71742B25A7
:100840006AF8E6FF600D120A83056AE56A70EE0534
:100850006980EA120A09E4F529F52AAF2A740F2FF4
:10086000F8E6FE741B2FF8E6B506080574E574700B
:10087000020573052AE52A70020529640C452970D2
:10088000DAE574640C45737041120A6A743F256C92
:10089000F8E6FF600D120A83056CE56C70EE056BDF
:1008A00080EA7FC0120A717446256EF8E6FF600D7B
:1008B000120A83056EE56E70EE056D80EA7FF47EA8
:1008C000011209E9120A4E020800120A6A7455253B
:1008D00070F8E6FF600D120A830570E57070EE0592
:1008E0006F80EA7FF47E011209E9D2A37F641E12B1
:0708F00009E9C2A31209E9A6
:0308F700020800F4
:10090600020800E493A3F8E493A34003F68001F2FF
:1009160008DFF48029E493A3F85407240CC8C333F2
:10092600C4540F4420C8834004F456800146F6DFC1
:10093600E4800B0102040810204080900986E47EC2
:10094600019360BCA3FF543F30E509541FFEE493B6
:10095600A360010ECF54C025E060A840B8E493A37D
:10096600FAE493A3F8E493A3C8C582C8CAC583CAA8
:10097600F0A3C8C582C8CAC583CADFE9DEE780BE60
:0109E1000015
:00000001FF
