:030000000208A54E
:0C08A500787FE4F6D8FD75810D02080094
:030868007FFAFE16
:10086B00E4F50AF50BC3E50B9FE50A9E502BE5B0AB
:10087B00540F750800F5094508701EF50CF50D05AC
:10088B000DE50D7002050CB488F5E50CB413F005FD
:0A089B000BE50B70D0050A80CC229B
:10080000E5B0540F750800F5094508701B75801E8A
:100810007F96FE12086B75802D12086B75804B1247
:10082000086B75808712086BE5096401450870063E
:1008300075801E120868E509640245087006758017
:100840002D120868E50964044508700975804B7F1E
:10085000FAFE12086BE5096408450870A3758087E5
:080860007FFAFE12086B80987C
:00000001FF
