:03000000020907EB
:0C090700787FE4F6D8FD75810D0208CF62
:1008CF00E4F50CF50DF508F509F50AF50BD2AFD2E5
:1008DF00A8D2AAD288D28AD280D281AE0CAF0D7C98
:1008EF00007D02120800ED64014C7006C280D281B7
:0808FF0080E9D280C28180E390
:0300030002088B65
:10088B00C0E0C0F0C0D075D000C000C004C005C02F
:10089B0006C0070509E50970020508AE08FF7C00D4
:1008AB007D02120800ED64014C7008050DE50D701A
:1008BB0002050CD007D006D005D004D000D0D0D084
:0408CB00F0D0E03257
:10080000C2D5EC30E709B2D5E4C39DFDE49CFCEE13
:1008100030E715B2D5E4C39FFFE49EFE120836C34D
:10082000E49DFDE49CFC800312083630D507C3E448
:060830009FFFE49EFE2282
:10083600BC000BBE0029EF8DF084FFADF022E4CCA6
:10084600F875F008EF2FFFEE33FEEC33FCEE9DEC6F
:10085600984005FCEE9DFE0FD5F0E9E4CEFD22EDB5
:10086600F8F5F0EE8420D21CFEADF075F008EF2FFF
:10087600FFED33FD4007985006D5F0F222C398FDF0
:050886000FD5F0EA228D
:00000001FF
