:03000000020938BA
:0C093800787FE4F6D8FD75810F020800FE
:1008C900D287C286E4F5A075A00A7F2C7E011209A1
:1008D9000AE4F5A012090AC287D28675A0057F84A9
:1008E9007E0312090AE4F5A07FC8FE12090AC2862E
:1008F900D28775A00A0E7F2C12090AE4F5A07F5849
:010909000EDF
:10090A00E4F50CF50DC3E50D9FE50C9E501FE4F5CB
:10091A000EF50F050FE50F7002050EB4FBF5E50E97
:0E092A00B404F0050DE50D70DC050C80D8223C
:10080000E5805403750800F5094508700FF5A0D27E
:1008100087C286308404D2858002C285E5096401DE
:100820004508701EC287D28675A0057E011208FF9A
:1008300075A00A7F2C1E12090A308404D28580021A
:10084000C285E509640245087020C287D28675A07A
:10085000057F2C7E0112090175A00A7F2C1E12094A
:100860000A308404D2858002C285E5096403450804
:100870007020C287D28675A0057F2C7E01120901E7
:1008800075A00A7F2C1E12090A308404D2858002CA
:10089000C285308414E50964024508700C30840474
:1008A000D2858002C2851208C9208403020800E5AF
:1008B00009640145086003020800308404D2858081
:0908C00002C2851208C9020800F9
:00000001FF
